{
  "_format": "hh-sol-artifact-1",
  "contractName": "Pool",
  "sourceName": "contracts/Pool.sol",
  "abi": [
    {
      "inputs": [
        {
          "internalType": "address",
          "name": "token0",
          "type": "address"
        },
        {
          "internalType": "address",
          "name": "token1",
          "type": "address"
        }
      ],
      "stateMutability": "nonpayable",
      "type": "constructor"
    },
    {
      "inputs": [
        {
          "internalType": "address",
          "name": "spender",
          "type": "address"
        },
        {
          "internalType": "uint256",
          "name": "allowance",
          "type": "uint256"
        },
        {
          "internalType": "uint256",
          "name": "needed",
          "type": "uint256"
        }
      ],
      "name": "ERC20InsufficientAllowance",
      "type": "error"
    },
    {
      "inputs": [
        {
          "internalType": "address",
          "name": "sender",
          "type": "address"
        },
        {
          "internalType": "uint256",
          "name": "balance",
          "type": "uint256"
        },
        {
          "internalType": "uint256",
          "name": "needed",
          "type": "uint256"
        }
      ],
      "name": "ERC20InsufficientBalance",
      "type": "error"
    },
    {
      "inputs": [
        {
          "internalType": "address",
          "name": "approver",
          "type": "address"
        }
      ],
      "name": "ERC20InvalidApprover",
      "type": "error"
    },
    {
      "inputs": [
        {
          "internalType": "address",
          "name": "receiver",
          "type": "address"
        }
      ],
      "name": "ERC20InvalidReceiver",
      "type": "error"
    },
    {
      "inputs": [
        {
          "internalType": "address",
          "name": "sender",
          "type": "address"
        }
      ],
      "name": "ERC20InvalidSender",
      "type": "error"
    },
    {
      "inputs": [
        {
          "internalType": "address",
          "name": "spender",
          "type": "address"
        }
      ],
      "name": "ERC20InvalidSpender",
      "type": "error"
    },
    {
      "inputs": [],
      "name": "ReentrancyGuardReentrantCall",
      "type": "error"
    },
    {
      "anonymous": false,
      "inputs": [
        {
          "indexed": true,
          "internalType": "uint256",
          "name": "lpToken",
          "type": "uint256"
        },
        {
          "indexed": false,
          "internalType": "address",
          "name": "token0",
          "type": "address"
        },
        {
          "indexed": true,
          "internalType": "uint256",
          "name": "amount0",
          "type": "uint256"
        },
        {
          "indexed": false,
          "internalType": "address",
          "name": "token1",
          "type": "address"
        },
        {
          "indexed": true,
          "internalType": "uint256",
          "name": "amount1",
          "type": "uint256"
        }
      ],
      "name": "AddedLiquidity",
      "type": "event"
    },
    {
      "anonymous": false,
      "inputs": [
        {
          "indexed": true,
          "internalType": "address",
          "name": "owner",
          "type": "address"
        },
        {
          "indexed": true,
          "internalType": "address",
          "name": "spender",
          "type": "address"
        },
        {
          "indexed": false,
          "internalType": "uint256",
          "name": "value",
          "type": "uint256"
        }
      ],
      "name": "Approval",
      "type": "event"
    },
    {
      "anonymous": false,
      "inputs": [
        {
          "indexed": true,
          "internalType": "uint256",
          "name": "lpToken",
          "type": "uint256"
        },
        {
          "indexed": false,
          "internalType": "address",
          "name": "token0",
          "type": "address"
        },
        {
          "indexed": true,
          "internalType": "uint256",
          "name": "amount0",
          "type": "uint256"
        },
        {
          "indexed": false,
          "internalType": "address",
          "name": "token1",
          "type": "address"
        },
        {
          "indexed": true,
          "internalType": "uint256",
          "name": "amount1",
          "type": "uint256"
        }
      ],
      "name": "RemovedLiquidity",
      "type": "event"
    },
    {
      "anonymous": false,
      "inputs": [
        {
          "indexed": false,
          "internalType": "address",
          "name": "tokenIn",
          "type": "address"
        },
        {
          "indexed": true,
          "internalType": "uint256",
          "name": "amountIn",
          "type": "uint256"
        },
        {
          "indexed": false,
          "internalType": "address",
          "name": "tokenOut",
          "type": "address"
        },
        {
          "indexed": true,
          "internalType": "uint256",
          "name": "amountOut",
          "type": "uint256"
        }
      ],
      "name": "Swapped",
      "type": "event"
    },
    {
      "anonymous": false,
      "inputs": [
        {
          "indexed": true,
          "internalType": "address",
          "name": "from",
          "type": "address"
        },
        {
          "indexed": true,
          "internalType": "address",
          "name": "to",
          "type": "address"
        },
        {
          "indexed": false,
          "internalType": "uint256",
          "name": "value",
          "type": "uint256"
        }
      ],
      "name": "Transfer",
      "type": "event"
    },
    {
      "inputs": [
        {
          "internalType": "uint256",
          "name": "amount0",
          "type": "uint256"
        }
      ],
      "name": "addLiquidity",
      "outputs": [],
      "stateMutability": "nonpayable",
      "type": "function"
    },
    {
      "inputs": [
        {
          "internalType": "address",
          "name": "owner",
          "type": "address"
        },
        {
          "internalType": "address",
          "name": "spender",
          "type": "address"
        }
      ],
      "name": "allowance",
      "outputs": [
        {
          "internalType": "uint256",
          "name": "",
          "type": "uint256"
        }
      ],
      "stateMutability": "view",
      "type": "function"
    },
    {
      "inputs": [
        {
          "internalType": "address",
          "name": "spender",
          "type": "address"
        },
        {
          "internalType": "uint256",
          "name": "value",
          "type": "uint256"
        }
      ],
      "name": "approve",
      "outputs": [
        {
          "internalType": "bool",
          "name": "",
          "type": "bool"
        }
      ],
      "stateMutability": "nonpayable",
      "type": "function"
    },
    {
      "inputs": [
        {
          "internalType": "address",
          "name": "account",
          "type": "address"
        }
      ],
      "name": "balanceOf",
      "outputs": [
        {
          "internalType": "uint256",
          "name": "",
          "type": "uint256"
        }
      ],
      "stateMutability": "view",
      "type": "function"
    },
    {
      "inputs": [
        {
          "internalType": "uint256",
          "name": "timePeriod",
          "type": "uint256"
        }
      ],
      "name": "calculateRewardRate",
      "outputs": [
        {
          "internalType": "uint256",
          "name": "",
          "type": "uint256"
        }
      ],
      "stateMutability": "pure",
      "type": "function"
    },
    {
      "inputs": [
        {
          "internalType": "address",
          "name": "user",
          "type": "address"
        },
        {
          "internalType": "uint256",
          "name": "timePeriod",
          "type": "uint256"
        }
      ],
      "name": "calculateRewards",
      "outputs": [
        {
          "internalType": "uint256",
          "name": "",
          "type": "uint256"
        }
      ],
      "stateMutability": "view",
      "type": "function"
    },
    {
      "inputs": [],
      "name": "decimals",
      "outputs": [
        {
          "internalType": "uint8",
          "name": "",
          "type": "uint8"
        }
      ],
      "stateMutability": "view",
      "type": "function"
    },
    {
      "inputs": [
        {
          "internalType": "address",
          "name": "tokenIn",
          "type": "address"
        },
        {
          "internalType": "uint256",
          "name": "amountIn",
          "type": "uint256"
        },
        {
          "internalType": "address",
          "name": "tokenOut",
          "type": "address"
        }
      ],
      "name": "getAmountOut",
      "outputs": [
        {
          "internalType": "uint256",
          "name": "",
          "type": "uint256"
        }
      ],
      "stateMutability": "view",
      "type": "function"
    },
    {
      "inputs": [
        {
          "internalType": "uint256",
          "name": "amount0",
          "type": "uint256"
        }
      ],
      "name": "getRequiredAmount1",
      "outputs": [
        {
          "internalType": "uint256",
          "name": "",
          "type": "uint256"
        }
      ],
      "stateMutability": "view",
      "type": "function"
    },
    {
      "inputs": [],
      "name": "getReserves",
      "outputs": [
        {
          "internalType": "uint256",
          "name": "",
          "type": "uint256"
        },
        {
          "internalType": "uint256",
          "name": "",
          "type": "uint256"
        }
      ],
      "stateMutability": "view",
      "type": "function"
    },
    {
      "inputs": [],
      "name": "name",
      "outputs": [
        {
          "internalType": "string",
          "name": "",
          "type": "string"
        }
      ],
      "stateMutability": "view",
      "type": "function"
    },
    {
      "inputs": [
        {
          "internalType": "uint256",
          "name": "lpAmount",
          "type": "uint256"
        }
      ],
      "name": "removeLiquidity",
      "outputs": [],
      "stateMutability": "nonpayable",
      "type": "function"
    },
    {
      "inputs": [
        {
          "internalType": "address",
          "name": "tokenIn",
          "type": "address"
        },
        {
          "internalType": "uint256",
          "name": "amountIn",
          "type": "uint256"
        },
        {
          "internalType": "address",
          "name": "tokenOut",
          "type": "address"
        }
      ],
      "name": "swap",
      "outputs": [],
      "stateMutability": "nonpayable",
      "type": "function"
    },
    {
      "inputs": [],
      "name": "symbol",
      "outputs": [
        {
          "internalType": "string",
          "name": "",
          "type": "string"
        }
      ],
      "stateMutability": "view",
      "type": "function"
    },
    {
      "inputs": [],
      "name": "totalSupply",
      "outputs": [
        {
          "internalType": "uint256",
          "name": "",
          "type": "uint256"
        }
      ],
      "stateMutability": "view",
      "type": "function"
    },
    {
      "inputs": [
        {
          "internalType": "address",
          "name": "to",
          "type": "address"
        },
        {
          "internalType": "uint256",
          "name": "value",
          "type": "uint256"
        }
      ],
      "name": "transfer",
      "outputs": [
        {
          "internalType": "bool",
          "name": "",
          "type": "bool"
        }
      ],
      "stateMutability": "nonpayable",
      "type": "function"
    },
    {
      "inputs": [
        {
          "internalType": "address",
          "name": "from",
          "type": "address"
        },
        {
          "internalType": "address",
          "name": "to",
          "type": "address"
        },
        {
          "internalType": "uint256",
          "name": "value",
          "type": "uint256"
        }
      ],
      "name": "transferFrom",
      "outputs": [
        {
          "internalType": "bool",
          "name": "",
          "type": "bool"
        }
      ],
      "stateMutability": "nonpayable",
      "type": "function"
    }
  ],
  "bytecode": "0x6101006040523480156200001257600080fd5b5060405162001b3738038062001b378339810160408190526200003591620000e0565b6040518060400160405280600781526020016626282a37b5b2b760c91b8152506040518060400160405280600381526020016213141560ea1b81525081818160039081620000849190620001bd565b506004620000938282620001bd565b505060016005555050506001600160a01b039182166080819052911660a081905260c09190915260e05262000289565b80516001600160a01b0381168114620000db57600080fd5b919050565b60008060408385031215620000f457600080fd5b620000ff83620000c3565b91506200010f60208401620000c3565b90509250929050565b634e487b7160e01b600052604160045260246000fd5b600181811c908216806200014357607f821691505b6020821081036200016457634e487b7160e01b600052602260045260246000fd5b50919050565b601f821115620001b857600081815260208120601f850160051c81016020861015620001935750805b601f850160051c820191505b81811015620001b4578281556001016200019f565b5050505b505050565b81516001600160401b03811115620001d957620001d962000118565b620001f181620001ea84546200012e565b846200016a565b602080601f831160018114620002295760008415620002105750858301515b600019600386901b1c1916600185901b178555620001b4565b600085815260208120601f198616915b828110156200025a5788860151825594840194600190910190840162000239565b5085821015620002795787850151600019600388901b60f8161c191681555b5050505050600190811b01905550565b60805160a05160c05160e0516117ef620003486000396000818161016b015281816106be015281816107340152818161082d015281816108da01528181610be201528181610d7201528181610e1e015261104001526000818161013801528181610450015281816105970152818161070f015281816107f20152818161089f01528181610baf01528181610d1f01528181610dd1015261101b0152600081816105fc0152610f530152600081816104d40152610e7d01526117ef6000f3fe608060405234801561001057600080fd5b506004361061010b5760003560e01c806370a08231116100a2578063a2f2278711610071578063a2f227871461027d578063a9059cbb14610290578063beb8314c146102a3578063dd62ed3e146102b6578063ff9c8ac6146102ef57600080fd5b806370a0823114610226578063929f8c751461024f57806395d89b41146102625780639c8f9f231461026a57600080fd5b806323b872dd116100de57806323b872dd146101dc578063313ce567146101ef57806351c6590a146101fe5780636d069a671461021357600080fd5b806306fdde03146101105780630902f1ac1461012e578063095ea7b3146101a757806318160ddd146101ca575b600080fd5b610118610302565b604051610125919061156e565b60405180910390f35b6001600160a01b037f00000000000000000000000000000000000000000000000000000000000000008116600090815260066020526040808220547f0000000000000000000000000000000000000000000000000000000000000000909316825290205460408051928352602083019190915201610125565b6101ba6101b53660046115d8565b610394565b6040519015158152602001610125565b6002545b604051908152602001610125565b6101ba6101ea366004611602565b6103ae565b60405160128152602001610125565b61021161020c36600461163e565b6103d2565b005b610211610221366004611657565b610799565b6101ce610234366004611693565b6001600160a01b031660009081526020819052604090205490565b6101ce61025d36600461163e565b610ba5565b610118610c44565b61021161027836600461163e565b610c53565b6101ce61028b36600461163e565b6110a3565b6101ba61029e3660046115d8565b611108565b6101ce6102b13660046115d8565b611116565b6101ce6102c43660046116b5565b6001600160a01b03918216600090815260016020908152604080832093909416825291909152205490565b6101ce6102fd366004611657565b61119a565b606060038054610311906116e8565b80601f016020809104026020016040519081016040528092919081815260200182805461033d906116e8565b801561038a5780601f1061035f5761010080835404028352916020019161038a565b820191906000526020600020905b81548152906001019060200180831161036d57829003601f168201915b5050505050905090565b6000336103a28185856111ea565b60019150505b92915050565b6000336103bc8582856111f7565b6103c7858585611276565b506001949350505050565b6103da6112d5565b6000811161042f5760405162461bcd60e51b815260206004820152601d60248201527f416d6f756e74206d7573742062652067726561746572207468616e203000000060448201526064015b60405180910390fd5b600061043a82610ba5565b905060008061044860025490565b11156104a5577f00000000000000000000000000000000000000000000000000000000000000006001600160a01b03166000908152600660205260409020546002546104949085611738565b61049e919061174f565b90506104a8565b50815b6104b233826112ff565b6040516323b872dd60e01b8152336004820152306024820152604481018490527f00000000000000000000000000000000000000000000000000000000000000006001600160a01b0316906323b872dd906064016020604051808303816000875af1158015610525573d6000803e3d6000fd5b505050506040513d601f19601f820116820180604052508101906105499190611771565b61058d5760405162461bcd60e51b8152602060048201526015602482015274151c985b9cd9995c88105b1c1a184819985a5b1959605a1b6044820152606401610426565b6001600160a01b037f000000000000000000000000000000000000000000000000000000000000000016600090815260066020526040812080548592906105d5908490611793565b90915550506040516323b872dd60e01b8152336004820152306024820152604481018390527f00000000000000000000000000000000000000000000000000000000000000006001600160a01b0316906323b872dd906064016020604051808303816000875af115801561064d573d6000803e3d6000fd5b505050506040513d601f19601f820116820180604052508101906106719190611771565b6106b45760405162461bcd60e51b8152602060048201526014602482015273151c985b9cd9995c8810995d184819985a5b195960621b6044820152606401610426565b6001600160a01b037f000000000000000000000000000000000000000000000000000000000000000016600090815260066020526040812080548492906106fc908490611793565b9091555050604080516001600160a01b037f0000000000000000000000000000000000000000000000000000000000000000811682527f00000000000000000000000000000000000000000000000000000000000000001660208201528391859184917f86c3929a230b573aa47cd83759aed11b800d147abc23e246dfeb5ebbd7a110e3910160405180910390a450506107966001600555565b50565b6107a16112d5565b806001600160a01b0316836001600160a01b0316036107f05760405162461bcd60e51b815260206004820152600b60248201526a53616d6520746f6b656e7360a81b6044820152606401610426565b7f00000000000000000000000000000000000000000000000000000000000000006001600160a01b0316836001600160a01b0316148061086157507f00000000000000000000000000000000000000000000000000000000000000006001600160a01b0316836001600160a01b0316145b61089d5760405162461bcd60e51b815260206004820152600d60248201526c24b73b30b634b2103a37b5b2b760991b6044820152606401610426565b7f00000000000000000000000000000000000000000000000000000000000000006001600160a01b0316816001600160a01b0316148061090e57507f00000000000000000000000000000000000000000000000000000000000000006001600160a01b0316816001600160a01b0316145b61094a5760405162461bcd60e51b815260206004820152600d60248201526c24b73b30b634b2103a37b5b2b760991b6044820152606401610426565b600082116109885760405162461bcd60e51b815260206004820152600b60248201526a16995c9bc8185b5bdd5b9d60aa1b6044820152606401610426565b600061099584848461119a565b6040516323b872dd60e01b8152336004820152306024820152604481018590529091506001600160a01b038516906323b872dd906064016020604051808303816000875af11580156109eb573d6000803e3d6000fd5b505050506040513d601f19601f82011682018060405250810190610a0f9190611771565b610a495760405162461bcd60e51b815260206004820152600b60248201526a14ddd85c0811985a5b195960aa1b6044820152606401610426565b60405163a9059cbb60e01b8152336004820152602481018290526001600160a01b0383169063a9059cbb906044016020604051808303816000875af1158015610a96573d6000803e3d6000fd5b505050506040513d601f19601f82011682018060405250810190610aba9190611771565b610af45760405162461bcd60e51b815260206004820152600b60248201526a14ddd85c0811985a5b195960aa1b6044820152606401610426565b6001600160a01b03841660009081526006602052604081208054859290610b1c908490611793565b90915550506001600160a01b03821660009081526006602052604081208054839290610b499084906117a6565b9091555050604080516001600160a01b03808716825284166020820152829185917fdb587d878116df0bdd4fe154699aa2c5f439da001cc811dfd05d9f589fc5a8ee910160405180910390a350610ba06001600555565b505050565b6001600160a01b037f00000000000000000000000000000000000000000000000000000000000000008116600090815260066020526040808220547f00000000000000000000000000000000000000000000000000000000000000009093168252812054909190811580610c17575080155b15610c2f57610c27600285611738565b949350505050565b81610c3a8286611738565b610c27919061174f565b606060048054610311906116e8565b610c5b6112d5565b60008111610cab5760405162461bcd60e51b815260206004820152601d60248201527f416d6f756e74206d7573742062652067726561746572207468616e20300000006044820152606401610426565b33600090815260208190526040902054811115610d0a5760405162461bcd60e51b815260206004820152601760248201527f496e73756666696369656e74204c502062616c616e63650000000000000000006044820152606401610426565b6000610d1560025490565b6001600160a01b037f000000000000000000000000000000000000000000000000000000000000000016600090815260066020526040812054919250908290610d5e9085611738565b610d68919061174f565b6001600160a01b037f000000000000000000000000000000000000000000000000000000000000000016600090815260066020526040812054919250908390610db19086611738565b610dbb919061174f565b9050610dc73385611339565b6001600160a01b037f00000000000000000000000000000000000000000000000000000000000000001660009081526006602052604081208054849290610e0f9084906117a6565b90915550506001600160a01b037f00000000000000000000000000000000000000000000000000000000000000001660009081526006602052604081208054839290610e5c9084906117a6565b909155505060405163a9059cbb60e01b8152336004820152602481018390527f00000000000000000000000000000000000000000000000000000000000000006001600160a01b03169063a9059cbb906044016020604051808303816000875af1158015610ece573d6000803e3d6000fd5b505050506040513d601f19601f82011682018060405250810190610ef29190611771565b610f375760405162461bcd60e51b8152602060048201526016602482015275151c985b9cd9995c881d1bdad95b8c0819985a5b195960521b6044820152606401610426565b60405163a9059cbb60e01b8152336004820152602481018290527f00000000000000000000000000000000000000000000000000000000000000006001600160a01b03169063a9059cbb906044016020604051808303816000875af1158015610fa4573d6000803e3d6000fd5b505050506040513d601f19601f82011682018060405250810190610fc89190611771565b61100d5760405162461bcd60e51b8152602060048201526016602482015275151c985b9cd9995c881d1bdad95b8c4819985a5b195960521b6044820152606401610426565b604080516001600160a01b037f0000000000000000000000000000000000000000000000000000000000000000811682527f00000000000000000000000000000000000000000000000000000000000000001660208201528291849187917f47a132e4e9e9fd057fafaf86c87eac1f1beb455bf20382505e83022d97163379910160405180910390a45050506107966001600555565b60008162127500036110b757506005919050565b816228de80036110c95750600c919050565b816276a700036110db57506028919050565b8162ed4e00036110ed57506055919050565b816301e1338003611100575060b4919050565b506003919050565b6000336103a2818585611276565b6001600160a01b038216600090815260208190526040812054600061113a60025490565b90508060000361114f576000925050506103a8565b600061115a856110a3565b905060008261116a856064611738565b611174919061174f565b9050600060646111848487611738565b61118e919061174f565b98975050505050505050565b6001600160a01b03808216600090815260066020526040808220549286168252812054909190826111cb8683611793565b6111d58785611738565b6111df919061174f565b979650505050505050565b610ba0838383600161136f565b6001600160a01b03838116600090815260016020908152604080832093861683529290522054600019811015611270578181101561126157604051637dc7a0d960e11b81526001600160a01b03841660048201526024810182905260448101839052606401610426565b6112708484848403600061136f565b50505050565b6001600160a01b0383166112a057604051634b637e8f60e11b815260006004820152602401610426565b6001600160a01b0382166112ca5760405163ec442f0560e01b815260006004820152602401610426565b610ba0838383611444565b6002600554036112f857604051633ee5aeb560e01b815260040160405180910390fd5b6002600555565b6001600160a01b0382166113295760405163ec442f0560e01b815260006004820152602401610426565b61133560008383611444565b5050565b6001600160a01b03821661136357604051634b637e8f60e11b815260006004820152602401610426565b61133582600083611444565b6001600160a01b0384166113995760405163e602df0560e01b815260006004820152602401610426565b6001600160a01b0383166113c357604051634a1406b160e11b815260006004820152602401610426565b6001600160a01b038085166000908152600160209081526040808320938716835292905220829055801561127057826001600160a01b0316846001600160a01b03167f8c5be1e5ebec7d5bd14f71427d1e84f3dd0314c0f7b2291e5b200ac8c7c3b9258460405161143691815260200190565b60405180910390a350505050565b6001600160a01b03831661146f5780600260008282546114649190611793565b909155506114e19050565b6001600160a01b038316600090815260208190526040902054818110156114c25760405163391434e360e21b81526001600160a01b03851660048201526024810182905260448101839052606401610426565b6001600160a01b03841660009081526020819052604090209082900390555b6001600160a01b0382166114fd5760028054829003905561151c565b6001600160a01b03821660009081526020819052604090208054820190555b816001600160a01b0316836001600160a01b03167fddf252ad1be2c89b69c2b068fc378daa952ba7f163c4a11628f55a4df523b3ef8360405161156191815260200190565b60405180910390a3505050565b600060208083528351808285015260005b8181101561159b5785810183015185820160400152820161157f565b506000604082860101526040601f19601f8301168501019250505092915050565b80356001600160a01b03811681146115d357600080fd5b919050565b600080604083850312156115eb57600080fd5b6115f4836115bc565b946020939093013593505050565b60008060006060848603121561161757600080fd5b611620846115bc565b925061162e602085016115bc565b9150604084013590509250925092565b60006020828403121561165057600080fd5b5035919050565b60008060006060848603121561166c57600080fd5b611675846115bc565b92506020840135915061168a604085016115bc565b90509250925092565b6000602082840312156116a557600080fd5b6116ae826115bc565b9392505050565b600080604083850312156116c857600080fd5b6116d1836115bc565b91506116df602084016115bc565b90509250929050565b600181811c908216806116fc57607f821691505b60208210810361171c57634e487b7160e01b600052602260045260246000fd5b50919050565b634e487b7160e01b600052601160045260246000fd5b80820281158282048414176103a8576103a8611722565b60008261176c57634e487b7160e01b600052601260045260246000fd5b500490565b60006020828403121561178357600080fd5b815180151581146116ae57600080fd5b808201808211156103a8576103a8611722565b818103818111156103a8576103a861172256fea2646970667358221220e52588859c2708e6fbef5e2ed3624d4cdd7df7b75e1382ba9d347932a55f1a1b64736f6c63430008140033",
  "linkReferences": {},
  "deployedLinkReferences": {}
}